:100000000C9434000C9449000C9449000C94490061
:100010000C9449000C9449000C9449000C9449003C
:100020000C9449000C9449000C9449000C9449002C
:100030000C9449000C9449000C9449000C9449001C
:100040000C9449000C9449000C9449000C9449000C
:100050000C9449000C9449000C9449000C944900FC
:100060000C9449000C94490011241FBECFEFD8E036
:10007000DEBFCDBF12E0A0E0B1E0E0ECF7E002C0EF
:1000800005900D92A834B107D9F70E94EC020C94A8
:10009000DE030C9400004498449A0895CF93DF93B4
:1000A00000D0CDB7DEB730E260FF02C0459A01C094
:1000B0004598439A439896958795779567953150DB
:1000C00099F72A8349830E944B002A814981213074
:1000D00051F4442381F087E893E10197F1F700C0E0
:1000E00000004150F6CF442331F096E09A95F1F7A5
:1000F00000C04150F8CF0F900F90DF91CF9108953D
:1001000087B1886387B918B80895CF93DF93C0E0AB
:10011000D1E0699179918991999121E046E90E9414
:100120004E0082E0C434D807A1F7DF91CF91089543
:100130002F923F924F925F926F927F928F929F92F7
:10014000AF92BF92CF92DF92EF92FF920F931F93E5
:10015000CF93DF93E4E2F1E060817181828193814A
:10016000E0E0F1E00081118122813381602B712B6D
:10017000822B932BE8E4F1E000811181228133810D
:10018000602B712B822B932B21E048EC0E944E00B8
:10019000E0E3F1E06081718182819381ECE0F1E044
:1001A0000081118122813381602B712B822B932B53
:1001B000E4E5F1E00081118122813381602B712B14
:1001C000822B932B21E048EC0E944E00ECE3F1E0FF
:1001D0006081718182819381E8E1F1E00081118188
:1001E00022813381602B712B822B932BE0E6F1E08F
:1001F0000081118122813381602B712B822B932B03
:1002000021E048EC0E944E006CEA662E61E0762EFA
:1002100078E8872E71E0972EF301608171818281E9
:100220009381F4010081118122813381602B712B34
:10023000822B932BE0EDAE2EE1E0BE2EF501008186
:10024000118122813381602B712B822B932B21E032
:1002500048EC0E944E00F0EA4F2EF1E05F2EACE732
:100260002A2EA1E03A2EF201608171818281938170
:10027000F1010081118122813381602B712B822B4E
:10028000932BB4ECCB2EB1E0DB2EF6010081118173
:1002900022813381602B712B822B932B21E048EC40
:1002A0000E944E00C4E9EC2EC1E0FC2E00E711E0F4
:1002B000F7016081718182819381F8012081318110
:1002C00042815381622B732B842B952BC8EBD1E099
:1002D000288139814A815B81622B732B842B952B7A
:1002E00021E048EC0E944E006091040270910502EA
:1002F00080910602909107022091E0013091E10186
:100300004091E2015091E301622B732B842B952BDA
:10031000209128023091290240912A0250912B020B
:10032000622B732B842B952B21E048EC0E944E000E
:10033000609110027091110280911202909113024B
:100340002091EC013091ED014091EE015091EF01CF
:10035000622B732B842B952B209134023091350224
:100360004091360250913702622B732B842B952BD0
:1003700021E048EC0E944E0060911C0270911D0229
:1003800080911E0290911F022091F8013091F90195
:100390004091FA015091FB01622B732B842B952B1A
:1003A000209140023091410240914202509143021B
:1003B000622B732B842B952B21E048EC0E944E007E
:1003C000F3016081718182819381F4012081318107
:1003D00042815381622B732B842B952BF5018080F6
:1003E0009180A280B380682979298A299B2921E0FC
:1003F00048EC0E944E00F2016081718182819381FC
:10040000F10180809180A280B380682979298A29AE
:100410009B29F60180809180A280B3806829792988
:100420008A299B2921E048EC0E944E00F701608157
:10043000718182819381F801008111812281338150
:10044000602B712B822B932B088119812A813B8190
:10045000602B712B822B932B21E048EC0E944E00E5
:10046000E4E2F1E06081718182819381E0E0F1E07A
:100470000081118122813381602B712B822B932B80
:10048000E8E4F1E00081118122813381602B712B3E
:10049000822B932B21E048EC0E944E00E0E3F1E038
:1004A0006081718182819381ECE0F1E000811181B2
:1004B00022813381602B712B822B932BE4E5F1E0B9
:1004C0000081118122813381602B712B822B932B30
:1004D00021E048EC0E944E00ECE3F1E06081718184
:1004E00082819381E8E1F1E00081118122813381F1
:1004F000602B712B822B932BE0E6F1E000811181C0
:1005000022813381602B712B822B932B21E048ECCD
:10051000DF91CF911F910F91FF90EF90DF90CF90DF
:10052000BF90AF909F908F907F906F905F904F9013
:100530003F902F900C944E001F93CF93DF931AE1BE
:10054000C2E5D0E00E946B03BE010E94F502880F55
:10055000991F880F991F80509F4FFC016081718106
:100560008281938121E044E60E944E00115051F7B0
:10057000DF91CF911F910895CF93C8EC6091000156
:1005800070910101809102019091030122E042E308
:100590000E944E0060916C0170916D0180916E011E
:1005A00090916F0122E042E30E944E006091D801D9
:1005B0007091D9018091DA019091DB0122E042E350
:1005C0000E944E0087E893E10197F1F700C0000018
:1005D000C150A1F6CF9108950E9480000E9498001A
:1005E0000E949C020E94BC02F9CF97FB072E16F4D2
:1005F000009407D077FD09D00E94090307FC05D0BD
:100600003EF4909581959F4F0895709561957F4F29
:100610000895AA1BBB1B51E107C0AA1FBB1FA61749
:10062000B70710F0A61BB70B881F991F5A95A9F79B
:1006300080959095BC01CD0108958F929F92AF92C5
:10064000BF92CF92DF92EF92FF92CF93DF93EC01B4
:10065000688179818A819B81611571058105910588
:1006600021F464E279ED8BE597E02DE133EF41E091
:1006700050E00E947B0349015A019B01AC01A7EAAB
:10068000B1E40E949A036B017C01ACEEB4EFA501CA
:1006900094010E94A803C60ED71EE81EF91EF7FE9D
:1006A00006C081E0C81AD108E10880E8F80AC882CB
:1006B000D982EA82FB82C6019F77DF91CF91FF90BA
:1006C000EF90DF90CF90BF90AF909F908F90089564
:1006D0000E941D03089584E492E00E941D03089582
:1006E000A0E0B0E08093440290934502A0934602BC
:1006F000B09347020895052E97FB1EF400940E94C4
:10070000920357FD07D00E94AD0307FC03D04EF4BF
:100710000C94920350954095309521953F4F4F4F43
:100720005F4F089590958095709561957F4F8F4F9D
:100730009F4F08950E94CF03A59F900DB49F900DE9
:10074000A49F800D911D11240895B7FF0C949A0366
:100750000E949A03821B930B0895A1E21A2EAA1BF2
:10076000BB1BFD010DC0AA1FBB1FEE1FFF1FA21761
:10077000B307E407F50720F0A21BB30BE40BF50B5E
:10078000661F771F881F991F1A9469F760957095E7
:10079000809590959B01AC01BD01CF010895A29F6A
:1007A000B001B39FC001A39F700D811D1124911D45
:1007B000B29F700D811D1124911D0895F894FFCFF3
:1007C0000C0000800C0000400C0000200C00001009
:1007D0000C0000080C0000040C0000020C000001DA
:1007E0000C0080000C0040000C0020000C001000E9
:1007F0000C0008000C0004000C0002000C000100BA
:100800000C8000000C4000000C2000000C100000C8
:100810000C0800000C0400000C0200000C01000099
:100820008C0000004C0000002C0000001400008030
:1008300014000040140000201400001014000008F0
:1008400014000004140000021400000114008000D1
:1008500014004000140020001400100014000800D0
:1008600014000400140002001400010014800000B1
:1008700014400000142000001410000014080000B0
:100880001404000014020000140100009400000091
:1008900054000000340000001800008018000040E0
:1008A00018000020180000101800000818000004AC
:1008B0001800000218000001180080001800400015
:1008C000180020001800100018000800180004008C
:1008D00018000200180001001880000018400000F5
:1008E000182000001810000018080000180400006C
:1008F00018020000180100009800000058000000D5
:080900003800000001000000B6
:00000001FF
